{
  "_format": "hh-sol-artifact-1",
  "contractName": "AutoPay",
  "sourceName": "contracts/AutoPay.sol",
  "abi": [
    {
      "inputs": [],
      "stateMutability": "nonpayable",
      "type": "constructor"
    },
    {
      "inputs": [
        {
          "internalType": "uint256",
          "name": "allowance",
          "type": "uint256"
        },
        {
          "internalType": "uint256",
          "name": "amount",
          "type": "uint256"
        },
        {
          "internalType": "address",
          "name": "token",
          "type": "address"
        }
      ],
      "name": "Allowance",
      "type": "error"
    },
    {
      "inputs": [
        {
          "internalType": "uint256",
          "name": "_amount",
          "type": "uint256"
        },
        {
          "internalType": "uint256",
          "name": "_relayerFeeInTransactingAsset",
          "type": "uint256"
        }
      ],
      "name": "AmountLessThanRelayer",
      "type": "error"
    },
    {
      "anonymous": false,
      "inputs": [
        {
          "indexed": false,
          "internalType": "address",
          "name": "previousAdmin",
          "type": "address"
        },
        {
          "indexed": false,
          "internalType": "address",
          "name": "newAdmin",
          "type": "address"
        }
      ],
      "name": "AdminChanged",
      "type": "event"
    },
    {
      "anonymous": false,
      "inputs": [
        {
          "indexed": true,
          "internalType": "address",
          "name": "beacon",
          "type": "address"
        }
      ],
      "name": "BeaconUpgraded",
      "type": "event"
    },
    {
      "anonymous": false,
      "inputs": [
        {
          "indexed": true,
          "internalType": "bytes32",
          "name": "_jobId",
          "type": "bytes32"
        },
        {
          "indexed": true,
          "internalType": "address",
          "name": "_from",
          "type": "address"
        },
        {
          "indexed": false,
          "internalType": "uint256",
          "name": "_timesExecuted",
          "type": "uint256"
        },
        {
          "indexed": false,
          "internalType": "uint256",
          "name": "_fundsUsed",
          "type": "uint256"
        },
        {
          "indexed": false,
          "internalType": "uint256",
          "name": "_amountOut",
          "type": "uint256"
        }
      ],
      "name": "ExecutedSourceChain",
      "type": "event"
    },
    {
      "anonymous": false,
      "inputs": [
        {
          "indexed": true,
          "internalType": "address",
          "name": "sender",
          "type": "address"
        },
        {
          "indexed": true,
          "internalType": "address",
          "name": "token",
          "type": "address"
        },
        {
          "indexed": true,
          "internalType": "uint256",
          "name": "amount",
          "type": "uint256"
        }
      ],
      "name": "FundsDeposited",
      "type": "event"
    },
    {
      "anonymous": false,
      "inputs": [
        {
          "indexed": true,
          "internalType": "address",
          "name": "receiver",
          "type": "address"
        },
        {
          "indexed": true,
          "internalType": "address",
          "name": "initiator",
          "type": "address"
        },
        {
          "indexed": true,
          "internalType": "address",
          "name": "token",
          "type": "address"
        },
        {
          "indexed": false,
          "internalType": "uint256",
          "name": "amount",
          "type": "uint256"
        }
      ],
      "name": "FundsWithdrawn",
      "type": "event"
    },
    {
      "anonymous": false,
      "inputs": [
        {
          "indexed": false,
          "internalType": "uint8",
          "name": "version",
          "type": "uint8"
        }
      ],
      "name": "Initialized",
      "type": "event"
    },
    {
      "anonymous": false,
      "inputs": [
        {
          "indexed": true,
          "internalType": "address",
          "name": "_taskCreator",
          "type": "address"
        },
        {
          "indexed": true,
          "internalType": "bytes32",
          "name": "_jobId",
          "type": "bytes32"
        },
        {
          "indexed": false,
          "internalType": "bytes32",
          "name": "_gelatoTaskId",
          "type": "bytes32"
        },
        {
          "indexed": true,
          "internalType": "address",
          "name": "_to",
          "type": "address"
        },
        {
          "indexed": false,
          "internalType": "uint256",
          "name": "_amount",
          "type": "uint256"
        },
        {
          "indexed": false,
          "internalType": "address",
          "name": "_fromToken",
          "type": "address"
        },
        {
          "indexed": false,
          "internalType": "address",
          "name": "_toToken",
          "type": "address"
        },
        {
          "indexed": false,
          "internalType": "uint256",
          "name": "_toChain",
          "type": "uint256"
        },
        {
          "indexed": false,
          "internalType": "uint32",
          "name": "_destinationDomain",
          "type": "uint32"
        },
        {
          "indexed": false,
          "internalType": "address",
          "name": "_destinationContract",
          "type": "address"
        },
        {
          "indexed": false,
          "internalType": "uint256",
          "name": "_cycles",
          "type": "uint256"
        },
        {
          "indexed": false,
          "internalType": "uint256",
          "name": "_startTime",
          "type": "uint256"
        },
        {
          "indexed": false,
          "internalType": "uint256",
          "name": "_interval",
          "type": "uint256"
        },
        {
          "indexed": false,
          "internalType": "enum AutoPay.Option",
          "name": "option",
          "type": "uint8"
        }
      ],
      "name": "JobCreated",
      "type": "event"
    },
    {
      "anonymous": false,
      "inputs": [
        {
          "indexed": true,
          "internalType": "address",
          "name": "_taskCreator",
          "type": "address"
        },
        {
          "indexed": true,
          "internalType": "bytes32",
          "name": "_jobId",
          "type": "bytes32"
        },
        {
          "indexed": false,
          "internalType": "bytes32",
          "name": "_gelatoTaskId",
          "type": "bytes32"
        },
        {
          "indexed": true,
          "internalType": "address",
          "name": "_to",
          "type": "address"
        },
        {
          "indexed": false,
          "internalType": "uint256",
          "name": "_amount",
          "type": "uint256"
        },
        {
          "indexed": false,
          "internalType": "uint256",
          "name": "_price",
          "type": "uint256"
        },
        {
          "indexed": false,
          "internalType": "address",
          "name": "_fromToken",
          "type": "address"
        },
        {
          "indexed": false,
          "internalType": "address",
          "name": "_toToken",
          "type": "address"
        },
        {
          "indexed": false,
          "internalType": "uint256",
          "name": "_toChain",
          "type": "uint256"
        },
        {
          "indexed": false,
          "internalType": "uint32",
          "name": "_destinationDomain",
          "type": "uint32"
        },
        {
          "indexed": false,
          "internalType": "address",
          "name": "_destinationContract",
          "type": "address"
        },
        {
          "indexed": false,
          "internalType": "uint256",
          "name": "_cycles",
          "type": "uint256"
        },
        {
          "indexed": false,
          "internalType": "uint256",
          "name": "_startTime",
          "type": "uint256"
        },
        {
          "indexed": false,
          "internalType": "uint256",
          "name": "_interval",
          "type": "uint256"
        },
        {
          "indexed": false,
          "internalType": "enum AutoPay.Option",
          "name": "option",
          "type": "uint8"
        }
      ],
      "name": "JobCreated",
      "type": "event"
    },
    {
      "anonymous": false,
      "inputs": [
        {
          "indexed": true,
          "internalType": "uint256",
          "name": "txFee",
          "type": "uint256"
        },
        {
          "indexed": true,
          "internalType": "address",
          "name": "feeToken",
          "type": "address"
        },
        {
          "indexed": true,
          "internalType": "address",
          "name": "execAddress",
          "type": "address"
        },
        {
          "indexed": false,
          "internalType": "bytes",
          "name": "execData",
          "type": "bytes"
        },
        {
          "indexed": false,
          "internalType": "bytes32",
          "name": "taskId",
          "type": "bytes32"
        },
        {
          "indexed": false,
          "internalType": "bool",
          "name": "callSuccess",
          "type": "bool"
        }
      ],
      "name": "JobSuccess",
      "type": "event"
    },
    {
      "anonymous": false,
      "inputs": [
        {
          "indexed": true,
          "internalType": "address",
          "name": "previousOwner",
          "type": "address"
        },
        {
          "indexed": true,
          "internalType": "address",
          "name": "newOwner",
          "type": "address"
        }
      ],
      "name": "OwnershipTransferred",
      "type": "event"
    },
    {
      "anonymous": false,
      "inputs": [
        {
          "indexed": true,
          "internalType": "address",
          "name": "implementation",
          "type": "address"
        }
      ],
      "name": "Upgraded",
      "type": "event"
    },
    {
      "anonymous": false,
      "inputs": [
        {
          "indexed": true,
          "internalType": "address",
          "name": "originSender",
          "type": "address"
        },
        {
          "indexed": false,
          "internalType": "uint32",
          "name": "origin",
          "type": "uint32"
        },
        {
          "indexed": false,
          "internalType": "address",
          "name": "asset",
          "type": "address"
        },
        {
          "indexed": false,
          "internalType": "uint256",
          "name": "amount",
          "type": "uint256"
        },
        {
          "indexed": false,
          "internalType": "bytes32",
          "name": "transferId",
          "type": "bytes32"
        },
        {
          "indexed": false,
          "internalType": "uint256",
          "name": "receiveTimestamp",
          "type": "uint256"
        },
        {
          "indexed": false,
          "internalType": "address",
          "name": "senderAccount",
          "type": "address"
        },
        {
          "indexed": false,
          "internalType": "address",
          "name": "receiverAccount",
          "type": "address"
        }
      ],
      "name": "XReceiveData",
      "type": "event"
    },
    {
      "anonymous": false,
      "inputs": [
        {
          "indexed": true,
          "internalType": "address",
          "name": "sender",
          "type": "address"
        },
        {
          "indexed": true,
          "internalType": "address",
          "name": "receiver",
          "type": "address"
        },
        {
          "indexed": true,
          "internalType": "address",
          "name": "fromToken",
          "type": "address"
        },
        {
          "indexed": false,
          "internalType": "address",
          "name": "toToken",
          "type": "address"
        },
        {
          "indexed": false,
          "internalType": "address",
          "name": "destinationContract",
          "type": "address"
        },
        {
          "indexed": false,
          "internalType": "uint256",
          "name": "amount",
          "type": "uint256"
        },
        {
          "indexed": false,
          "internalType": "uint256",
          "name": "startTime",
          "type": "uint256"
        },
        {
          "indexed": false,
          "internalType": "uint256",
          "name": "relayerFeeInTransactingAsset",
          "type": "uint256"
        },
        {
          "indexed": false,
          "internalType": "uint32",
          "name": "destinationDomain",
          "type": "uint32"
        }
      ],
      "name": "XTransferData",
      "type": "event"
    },
    {
      "stateMutability": "payable",
      "type": "fallback"
    },
    {
      "inputs": [
        {
          "internalType": "address",
          "name": "_automate",
          "type": "address"
        },
        {
          "internalType": "address",
          "name": "_fundsOwner",
          "type": "address"
        }
      ],
      "name": "ATC__initialize",
      "outputs": [],
      "stateMutability": "nonpayable",
      "type": "function"
    },
    {
      "inputs": [],
      "name": "FEES",
      "outputs": [
        {
          "internalType": "uint256",
          "name": "",
          "type": "uint256"
        }
      ],
      "stateMutability": "view",
      "type": "function"
    },
    {
      "inputs": [],
      "name": "WETH",
      "outputs": [
        {
          "internalType": "address",
          "name": "",
          "type": "address"
        }
      ],
      "stateMutability": "view",
      "type": "function"
    },
    {
      "inputs": [
        {
          "internalType": "address",
          "name": "_automate",
          "type": "address"
        },
        {
          "internalType": "address",
          "name": "_taskCreator",
          "type": "address"
        }
      ],
      "name": "__initialize",
      "outputs": [],
      "stateMutability": "nonpayable",
      "type": "function"
    },
    {
      "inputs": [
        {
          "internalType": "bytes32",
          "name": "_jobId",
          "type": "bytes32"
        }
      ],
      "name": "_cancelJob",
      "outputs": [],
      "stateMutability": "nonpayable",
      "type": "function"
    },
    {
      "inputs": [
        {
          "internalType": "address",
          "name": "_from",
          "type": "address"
        },
        {
          "internalType": "address",
          "name": "_to",
          "type": "address"
        },
        {
          "internalType": "uint256",
          "name": "_amount",
          "type": "uint256"
        },
        {
          "internalType": "uint256",
          "name": "_price",
          "type": "uint256"
        },
        {
          "internalType": "address",
          "name": "_fromToken",
          "type": "address"
        },
        {
          "internalType": "address",
          "name": "_toToken",
          "type": "address"
        },
        {
          "internalType": "uint256",
          "name": "_toChain",
          "type": "uint256"
        },
        {
          "internalType": "uint32",
          "name": "_destinationDomain",
          "type": "uint32"
        },
        {
          "internalType": "address",
          "name": "_destinationContract",
          "type": "address"
        },
        {
          "internalType": "uint256",
          "name": "_cycles",
          "type": "uint256"
        },
        {
          "internalType": "uint256",
          "name": "_startTime",
          "type": "uint256"
        },
        {
          "internalType": "uint256",
          "name": "_interval",
          "type": "uint256"
        },
        {
          "internalType": "uint256",
          "name": "_relayerFeeInTransactingAsset",
          "type": "uint256"
        },
        {
          "internalType": "address",
          "name": "_swapper",
          "type": "address"
        },
        {
          "internalType": "bytes",
          "name": "_swapData",
          "type": "bytes"
        }
      ],
      "name": "_conditionalAutomateCron",
      "outputs": [],
      "stateMutability": "nonpayable",
      "type": "function"
    },
    {
      "inputs": [
        {
          "internalType": "address",
          "name": "_to",
          "type": "address"
        },
        {
          "internalType": "uint256",
          "name": "_amount",
          "type": "uint256"
        },
        {
          "internalType": "uint256",
          "name": "_price",
          "type": "uint256"
        },
        {
          "internalType": "address",
          "name": "_fromToken",
          "type": "address"
        },
        {
          "internalType": "address",
          "name": "_toToken",
          "type": "address"
        },
        {
          "internalType": "address",
          "name": "_tokenA",
          "type": "address"
        },
        {
          "internalType": "address",
          "name": "_tokenB",
          "type": "address"
        },
        {
          "internalType": "uint256",
          "name": "_toChain",
          "type": "uint256"
        },
        {
          "internalType": "uint32",
          "name": "_destinationDomain",
          "type": "uint32"
        },
        {
          "internalType": "address",
          "name": "_destinationContract",
          "type": "address"
        },
        {
          "internalType": "uint256",
          "name": "_cycles",
          "type": "uint256"
        },
        {
          "internalType": "uint256",
          "name": "_startTime",
          "type": "uint256"
        },
        {
          "internalType": "uint256",
          "name": "_interval",
          "type": "uint256"
        },
        {
          "internalType": "string",
          "name": "_web3FunctionHash",
          "type": "string"
        }
      ],
      "name": "_createConditionalAutomate",
      "outputs": [],
      "stateMutability": "nonpayable",
      "type": "function"
    },
    {
      "inputs": [
        {
          "internalType": "address[]",
          "name": "_to",
          "type": "address[]"
        },
        {
          "internalType": "uint256[]",
          "name": "_amount",
          "type": "uint256[]"
        },
        {
          "internalType": "uint256[]",
          "name": "_price",
          "type": "uint256[]"
        },
        {
          "internalType": "address[]",
          "name": "_fromToken",
          "type": "address[]"
        },
        {
          "internalType": "address[]",
          "name": "_toToken",
          "type": "address[]"
        },
        {
          "internalType": "address[]",
          "name": "_tokenA",
          "type": "address[]"
        },
        {
          "internalType": "address[]",
          "name": "_tokenB",
          "type": "address[]"
        },
        {
          "internalType": "uint256[]",
          "name": "_toChain",
          "type": "uint256[]"
        },
        {
          "internalType": "uint32[]",
          "name": "_destinationDomain",
          "type": "uint32[]"
        },
        {
          "internalType": "address[]",
          "name": "_destinationContract",
          "type": "address[]"
        },
        {
          "internalType": "uint256[]",
          "name": "_cycles",
          "type": "uint256[]"
        },
        {
          "internalType": "uint256[]",
          "name": "_startTime",
          "type": "uint256[]"
        },
        {
          "internalType": "uint256[]",
          "name": "_interval",
          "type": "uint256[]"
        },
        {
          "internalType": "string",
          "name": "_web3FunctionHash",
          "type": "string"
        }
      ],
      "name": "_createMultipleConditionalAutomate",
      "outputs": [],
      "stateMutability": "nonpayable",
      "type": "function"
    },
    {
      "inputs": [
        {
          "internalType": "address[]",
          "name": "_to",
          "type": "address[]"
        },
        {
          "internalType": "uint256[]",
          "name": "_amount",
          "type": "uint256[]"
        },
        {
          "internalType": "address[]",
          "name": "_fromToken",
          "type": "address[]"
        },
        {
          "internalType": "address[]",
          "name": "_toToken",
          "type": "address[]"
        },
        {
          "internalType": "uint256[]",
          "name": "_toChain",
          "type": "uint256[]"
        },
        {
          "internalType": "uint32[]",
          "name": "_destinationDomain",
          "type": "uint32[]"
        },
        {
          "internalType": "address[]",
          "name": "_destinationContract",
          "type": "address[]"
        },
        {
          "internalType": "uint256[]",
          "name": "_cycles",
          "type": "uint256[]"
        },
        {
          "internalType": "uint256[]",
          "name": "_startTime",
          "type": "uint256[]"
        },
        {
          "internalType": "uint256[]",
          "name": "_interval",
          "type": "uint256[]"
        },
        {
          "internalType": "string",
          "name": "_web3FunctionHash",
          "type": "string"
        }
      ],
      "name": "_createMultipleTimeAutomate",
      "outputs": [],
      "stateMutability": "nonpayable",
      "type": "function"
    },
    {
      "inputs": [
        {
          "internalType": "address",
          "name": "_to",
          "type": "address"
        },
        {
          "internalType": "uint256",
          "name": "_amount",
          "type": "uint256"
        },
        {
          "internalType": "address",
          "name": "_fromToken",
          "type": "address"
        },
        {
          "internalType": "address",
          "name": "_toToken",
          "type": "address"
        },
        {
          "internalType": "uint256",
          "name": "_toChain",
          "type": "uint256"
        },
        {
          "internalType": "uint32",
          "name": "_destinationDomain",
          "type": "uint32"
        },
        {
          "internalType": "address",
          "name": "_destinationContract",
          "type": "address"
        },
        {
          "internalType": "uint256",
          "name": "_cycles",
          "type": "uint256"
        },
        {
          "internalType": "uint256",
          "name": "_startTime",
          "type": "uint256"
        },
        {
          "internalType": "uint256",
          "name": "_interval",
          "type": "uint256"
        },
        {
          "internalType": "string",
          "name": "_web3FunctionHash",
          "type": "string"
        }
      ],
      "name": "_createTimeAutomate",
      "outputs": [],
      "stateMutability": "nonpayable",
      "type": "function"
    },
    {
      "inputs": [
        {
          "internalType": "bytes32",
          "name": "",
          "type": "bytes32"
        }
      ],
      "name": "_createdJobs",
      "outputs": [
        {
          "internalType": "address",
          "name": "_user",
          "type": "address"
        },
        {
          "internalType": "uint256",
          "name": "_totalCycles",
          "type": "uint256"
        },
        {
          "internalType": "uint256",
          "name": "_executedCycles",
          "type": "uint256"
        },
        {
          "internalType": "bytes32",
          "name": "_gelatoTaskID",
          "type": "bytes32"
        }
      ],
      "stateMutability": "view",
      "type": "function"
    },
    {
      "inputs": [
        {
          "internalType": "address",
          "name": "_from",
          "type": "address"
        },
        {
          "internalType": "address",
          "name": "_to",
          "type": "address"
        },
        {
          "internalType": "uint256",
          "name": "_amount",
          "type": "uint256"
        },
        {
          "internalType": "uint256",
          "name": "_price",
          "type": "uint256"
        },
        {
          "internalType": "address",
          "name": "_fromToken",
          "type": "address"
        },
        {
          "internalType": "address",
          "name": "_toToken",
          "type": "address"
        },
        {
          "internalType": "uint256",
          "name": "_toChain",
          "type": "uint256"
        },
        {
          "internalType": "uint32",
          "name": "_destinationDomain",
          "type": "uint32"
        },
        {
          "internalType": "address",
          "name": "_destinationContract",
          "type": "address"
        },
        {
          "internalType": "uint256",
          "name": "_cycles",
          "type": "uint256"
        },
        {
          "internalType": "uint256",
          "name": "_startTime",
          "type": "uint256"
        },
        {
          "internalType": "uint256",
          "name": "_interval",
          "type": "uint256"
        }
      ],
      "name": "_getAutomateJobId",
      "outputs": [
        {
          "internalType": "bytes32",
          "name": "",
          "type": "bytes32"
        }
      ],
      "stateMutability": "pure",
      "type": "function"
    },
    {
      "inputs": [
        {
          "internalType": "address",
          "name": "_from",
          "type": "address"
        },
        {
          "internalType": "address",
          "name": "_to",
          "type": "address"
        },
        {
          "internalType": "uint256",
          "name": "_amount",
          "type": "uint256"
        },
        {
          "internalType": "address",
          "name": "_fromToken",
          "type": "address"
        },
        {
          "internalType": "address",
          "name": "_toToken",
          "type": "address"
        },
        {
          "internalType": "uint256",
          "name": "_toChain",
          "type": "uint256"
        },
        {
          "internalType": "uint32",
          "name": "_destinationDomain",
          "type": "uint32"
        },
        {
          "internalType": "address",
          "name": "_destinationContract",
          "type": "address"
        },
        {
          "internalType": "uint256",
          "name": "_cycles",
          "type": "uint256"
        },
        {
          "internalType": "uint256",
          "name": "_startTime",
          "type": "uint256"
        },
        {
          "internalType": "uint256",
          "name": "_interval",
          "type": "uint256"
        }
      ],
      "name": "_getAutomateJobId",
      "outputs": [
        {
          "internalType": "bytes32",
          "name": "",
          "type": "bytes32"
        }
      ],
      "stateMutability": "pure",
      "type": "function"
    },
    {
      "inputs": [
        {
          "internalType": "address",
          "name": "_from",
          "type": "address"
        },
        {
          "internalType": "address",
          "name": "_to",
          "type": "address"
        },
        {
          "internalType": "uint256",
          "name": "_amount",
          "type": "uint256"
        },
        {
          "internalType": "address",
          "name": "_fromToken",
          "type": "address"
        },
        {
          "internalType": "address",
          "name": "_toToken",
          "type": "address"
        },
        {
          "internalType": "uint256",
          "name": "_toChain",
          "type": "uint256"
        },
        {
          "internalType": "uint32",
          "name": "_destinationDomain",
          "type": "uint32"
        },
        {
          "internalType": "address",
          "name": "_destinationContract",
          "type": "address"
        },
        {
          "internalType": "uint256",
          "name": "_cycles",
          "type": "uint256"
        },
        {
          "internalType": "uint256",
          "name": "_startTime",
          "type": "uint256"
        },
        {
          "internalType": "uint256",
          "name": "_interval",
          "type": "uint256"
        }
      ],
      "name": "_getWeb3FunctionHash",
      "outputs": [
        {
          "internalType": "bytes",
          "name": "",
          "type": "bytes"
        }
      ],
      "stateMutability": "view",
      "type": "function"
    },
    {
      "inputs": [
        {
          "internalType": "address",
          "name": "_from",
          "type": "address"
        },
        {
          "internalType": "address",
          "name": "_to",
          "type": "address"
        },
        {
          "internalType": "uint256",
          "name": "_amount",
          "type": "uint256"
        },
        {
          "internalType": "uint256",
          "name": "_price",
          "type": "uint256"
        },
        {
          "internalType": "address",
          "name": "_fromToken",
          "type": "address"
        },
        {
          "internalType": "address",
          "name": "_toToken",
          "type": "address"
        },
        {
          "internalType": "address",
          "name": "_tokenA",
          "type": "address"
        },
        {
          "internalType": "address",
          "name": "_tokenB",
          "type": "address"
        },
        {
          "internalType": "uint256",
          "name": "_toChain",
          "type": "uint256"
        },
        {
          "internalType": "uint32",
          "name": "_destinationDomain",
          "type": "uint32"
        },
        {
          "internalType": "address",
          "name": "_destinationContract",
          "type": "address"
        },
        {
          "internalType": "uint256",
          "name": "_cycles",
          "type": "uint256"
        },
        {
          "internalType": "uint256",
          "name": "_startTime",
          "type": "uint256"
        },
        {
          "internalType": "uint256",
          "name": "_interval",
          "type": "uint256"
        }
      ],
      "name": "_getWeb3FunctionHash",
      "outputs": [
        {
          "internalType": "bytes",
          "name": "",
          "type": "bytes"
        }
      ],
      "stateMutability": "view",
      "type": "function"
    },
    {
      "inputs": [
        {
          "internalType": "address",
          "name": "_fromAsset",
          "type": "address"
        },
        {
          "internalType": "address",
          "name": "_toAsset",
          "type": "address"
        },
        {
          "internalType": "uint256",
          "name": "_amountIn",
          "type": "uint256"
        },
        {
          "internalType": "address",
          "name": "_swapper",
          "type": "address"
        },
        {
          "internalType": "bytes",
          "name": "_swapData",
          "type": "bytes"
        }
      ],
      "name": "_setupAndSwap",
      "outputs": [
        {
          "internalType": "uint256",
          "name": "amountOut",
          "type": "uint256"
        }
      ],
      "stateMutability": "nonpayable",
      "type": "function"
    },
    {
      "inputs": [
        {
          "internalType": "address",
          "name": "_from",
          "type": "address"
        },
        {
          "internalType": "address",
          "name": "_to",
          "type": "address"
        },
        {
          "internalType": "uint256",
          "name": "_amount",
          "type": "uint256"
        },
        {
          "internalType": "address",
          "name": "_fromToken",
          "type": "address"
        },
        {
          "internalType": "address",
          "name": "_toToken",
          "type": "address"
        },
        {
          "internalType": "uint256",
          "name": "_toChain",
          "type": "uint256"
        },
        {
          "internalType": "uint32",
          "name": "_destinationDomain",
          "type": "uint32"
        },
        {
          "internalType": "address",
          "name": "_destinationContract",
          "type": "address"
        },
        {
          "internalType": "uint256",
          "name": "_cycles",
          "type": "uint256"
        },
        {
          "internalType": "uint256",
          "name": "_startTime",
          "type": "uint256"
        },
        {
          "internalType": "uint256",
          "name": "_interval",
          "type": "uint256"
        },
        {
          "internalType": "uint256",
          "name": "_relayerFeeInTransactingAsset",
          "type": "uint256"
        },
        {
          "internalType": "address",
          "name": "_swapper",
          "type": "address"
        },
        {
          "internalType": "bytes",
          "name": "_swapData",
          "type": "bytes"
        }
      ],
      "name": "_timeAutomateCron",
      "outputs": [],
      "stateMutability": "nonpayable",
      "type": "function"
    },
    {
      "inputs": [],
      "name": "_transferGas",
      "outputs": [],
      "stateMutability": "payable",
      "type": "function"
    },
    {
      "inputs": [],
      "name": "automate",
      "outputs": [
        {
          "internalType": "contract IAutomate",
          "name": "",
          "type": "address"
        }
      ],
      "stateMutability": "view",
      "type": "function"
    },
    {
      "inputs": [],
      "name": "checkBalance",
      "outputs": [
        {
          "internalType": "uint256",
          "name": "",
          "type": "uint256"
        }
      ],
      "stateMutability": "view",
      "type": "function"
    },
    {
      "inputs": [],
      "name": "connext",
      "outputs": [
        {
          "internalType": "contract IConnext",
          "name": "",
          "type": "address"
        }
      ],
      "stateMutability": "view",
      "type": "function"
    },
    {
      "inputs": [],
      "name": "dedicatedMsgSender",
      "outputs": [
        {
          "internalType": "address",
          "name": "",
          "type": "address"
        }
      ],
      "stateMutability": "view",
      "type": "function"
    },
    {
      "inputs": [
        {
          "internalType": "address",
          "name": "_swapper",
          "type": "address"
        },
        {
          "internalType": "bytes",
          "name": "swapData",
          "type": "bytes"
        }
      ],
      "name": "directSwapperCall",
      "outputs": [
        {
          "internalType": "uint256",
          "name": "amountOut",
          "type": "uint256"
        }
      ],
      "stateMutability": "payable",
      "type": "function"
    },
    {
      "inputs": [],
      "name": "fundsOwner",
      "outputs": [
        {
          "internalType": "address",
          "name": "",
          "type": "address"
        }
      ],
      "stateMutability": "view",
      "type": "function"
    },
    {
      "inputs": [],
      "name": "gelato1Balance",
      "outputs": [
        {
          "internalType": "contract IGelato1Balance",
          "name": "",
          "type": "address"
        }
      ],
      "stateMutability": "view",
      "type": "function"
    },
    {
      "inputs": [
        {
          "internalType": "address",
          "name": "_address",
          "type": "address"
        }
      ],
      "name": "getBalanceOfToken",
      "outputs": [
        {
          "internalType": "uint256",
          "name": "",
          "type": "uint256"
        }
      ],
      "stateMutability": "view",
      "type": "function"
    },
    {
      "inputs": [
        {
          "internalType": "contract IConnext",
          "name": "_connext",
          "type": "address"
        },
        {
          "internalType": "contract ISwapRouter",
          "name": "_swapRouter",
          "type": "address"
        },
        {
          "internalType": "address payable",
          "name": "_ops",
          "type": "address"
        }
      ],
      "name": "initialize",
      "outputs": [],
      "stateMutability": "nonpayable",
      "type": "function"
    },
    {
      "inputs": [],
      "name": "owner",
      "outputs": [
        {
          "internalType": "address",
          "name": "",
          "type": "address"
        }
      ],
      "stateMutability": "view",
      "type": "function"
    },
    {
      "inputs": [],
      "name": "proxiableUUID",
      "outputs": [
        {
          "internalType": "bytes32",
          "name": "",
          "type": "bytes32"
        }
      ],
      "stateMutability": "view",
      "type": "function"
    },
    {
      "inputs": [],
      "name": "renounceOwnership",
      "outputs": [],
      "stateMutability": "nonpayable",
      "type": "function"
    },
    {
      "inputs": [
        {
          "internalType": "address",
          "name": "_fromToken",
          "type": "address"
        },
        {
          "internalType": "address",
          "name": "_toToken",
          "type": "address"
        },
        {
          "internalType": "uint256",
          "name": "amountIn",
          "type": "uint256"
        }
      ],
      "name": "swapExactInputSingle",
      "outputs": [
        {
          "internalType": "uint256",
          "name": "amountOut",
          "type": "uint256"
        }
      ],
      "stateMutability": "nonpayable",
      "type": "function"
    },
    {
      "inputs": [],
      "name": "swapRouter",
      "outputs": [
        {
          "internalType": "contract ISwapRouter",
          "name": "",
          "type": "address"
        }
      ],
      "stateMutability": "view",
      "type": "function"
    },
    {
      "inputs": [
        {
          "internalType": "address",
          "name": "newOwner",
          "type": "address"
        }
      ],
      "name": "transferOwnership",
      "outputs": [],
      "stateMutability": "nonpayable",
      "type": "function"
    },
    {
      "inputs": [],
      "name": "treasury",
      "outputs": [
        {
          "internalType": "contract ITreasury",
          "name": "",
          "type": "address"
        }
      ],
      "stateMutability": "view",
      "type": "function"
    },
    {
      "inputs": [
        {
          "internalType": "address",
          "name": "_treasury",
          "type": "address"
        }
      ],
      "name": "updateTreasury",
      "outputs": [],
      "stateMutability": "nonpayable",
      "type": "function"
    },
    {
      "inputs": [
        {
          "internalType": "address",
          "name": "newImplementation",
          "type": "address"
        }
      ],
      "name": "upgradeTo",
      "outputs": [],
      "stateMutability": "nonpayable",
      "type": "function"
    },
    {
      "inputs": [
        {
          "internalType": "address",
          "name": "newImplementation",
          "type": "address"
        },
        {
          "internalType": "bytes",
          "name": "data",
          "type": "bytes"
        }
      ],
      "name": "upgradeToAndCall",
      "outputs": [],
      "stateMutability": "payable",
      "type": "function"
    },
    {
      "inputs": [
        {
          "internalType": "address",
          "name": "",
          "type": "address"
        },
        {
          "internalType": "address",
          "name": "",
          "type": "address"
        }
      ],
      "name": "userBalance",
      "outputs": [
        {
          "internalType": "uint256",
          "name": "",
          "type": "uint256"
        }
      ],
      "stateMutability": "view",
      "type": "function"
    },
    {
      "inputs": [
        {
          "internalType": "address",
          "name": "from",
          "type": "address"
        },
        {
          "internalType": "address",
          "name": "recipient",
          "type": "address"
        },
        {
          "internalType": "address",
          "name": "destinationContract",
          "type": "address"
        },
        {
          "internalType": "uint32",
          "name": "destinationDomain",
          "type": "uint32"
        },
        {
          "internalType": "address",
          "name": "fromToken",
          "type": "address"
        },
        {
          "internalType": "address",
          "name": "toToken",
          "type": "address"
        },
        {
          "internalType": "uint256",
          "name": "amount",
          "type": "uint256"
        },
        {
          "internalType": "uint256",
          "name": "slippage",
          "type": "uint256"
        },
        {
          "internalType": "uint256",
          "name": "relayerFeeInTransactingAsset",
          "type": "uint256"
        }
      ],
      "name": "xTransfer",
      "outputs": [],
      "stateMutability": "nonpayable",
      "type": "function"
    },
    {
      "stateMutability": "payable",
      "type": "receive"
    }
  ],
  "bytecode": "0x60a08060405234620000e157306080526000549060ff8260081c166200008f575060ff8082160362000053575b604051614fcc9081620000e78239608051818181611bca01528181611d7601526125b90152f35b60ff90811916176000557f7f26b83ff96e1f2b6a682f133852f6798a09c465da95921460cefb3847402498602060405160ff8152a1386200002c565b62461bcd60e51b815260206004820152602760248201527f496e697469616c697a61626c653a20636f6e747261637420697320696e697469604482015266616c697a696e6760c81b6064820152608490fd5b600080fdfe61080080604052600436101561001b575b50361561001957005b005b60006104605260003560e01c908163049aacfe14612b695750806307e47b25146127ab57806324e752a11461278557806328f150eb146127595780633659cfe6146125945780633935db63146124995780633c04be51146120615780633f3f2dad14611ff757806346ee3c5914611fcb5780634f1ef28614611d275780635183ef7914611c7b57806352d1902d14611bb457806357fb1d6714611b8257806361d027b314611b5657806362a4b0a914611b01578063715018a614611a9c578063717a8dd714611a775780637e2704cc14611a5b5780637f51bb1f14611a1857806383786f8c146119c05780638b7b23ee1461199f5780638ba9bf4c146118f85780638da5cb5b146118cc578063a0d701021461188d578063a8f383f514611833578063ad5c464814611801578063c0c53b8b14611475578063c31c9c0714611449578063c71daccb1461142a578063c728b83d14611192578063c736d03814610e8f578063caf9e19114610c6a578063ceb9201214610b2c578063d6b0bdca14610aa6578063d8524c6f1461086c578063de4b05481461083d578063e475a844146102da578063f19f1a9b146102765763f2fde38b146101db5738610010565b3461026f57602036600319011261026f576101f4612b8d565b6101fc612ec7565b6001600160a01b0381161561021b5761021490612f1f565b6104605180f35b60405162461bcd60e51b815260206004820152602660248201527f4f776e61626c653a206e6577206f776e657220697320746865207a65726f206160448201526564647265737360d01b6064820152608490fd5b6104605180fd5b3461026f5760a036600319011261026f5761028f612b8d565b610297612ba3565b61029f612bb9565b91608435916001600160401b03831161026f576020936102c66102d2943690600401612c67565b9390926044359161367a565b604051908152f35b3461026f576101c036600319011261026f576004356001600160401b03811161026f5761030b903690600401612d55565b610200526104e0526024356001600160401b03811161026f57610332903690600401612d55565b6103e052610300526044356001600160401b03811161026f57610359903690600401612d55565b6105e0526101e0526064356001600160401b03811161026f57610380903690600401612d55565b60c052610620526084356001600160401b03811161026f576103a6903690600401612d55565b6106c052610540526001600160401b0360a4351161026f576103cd3660a435600401612d55565b6105c0526106a0526001600160401b0360c4351161026f576103f43660c435600401612d55565b6105a052610320526001600160401b0360e4351161026f5761041b3660e435600401612d55565b610160526102e0526001600160401b03610104351161026f576104443661010435600401612d55565b6103c052610440526001600160401b03610124351161026f5761046d3661012435600401612d55565b6101a052610480526001600160401b03610144351161026f576104963661014435600401612d55565b6102205260e0526001600160401b03610164351161026f576104be3661016435600401612d55565b61052052610180526001600160401b03610184351161026f576104e73661018435600401612d55565b610280526080526101a4356001600160401b03811161026f5761050e903690600401612ea9565b6101405261046051610340525b6102005161034051908110156102145760c051610620516001600160a01b039261054d9261054892614419565b614429565b604051636eb1769f60e11b81523360048201523060248201529160209183916044918391165afa9081156107fd57610460519161080b575b5061059a610340516103e05161030051614419565b3511610702576106ed6105ba61054861034051610200516104e051614419565b6105ce610340516103e05161030051614419565b356105e3610340516105e0516101e051614419565b35610680526105fe6105486103405160c05161062051614419565b61024052610619610548610340516106c05161054051614419565b6104a052610634610548610340516105c0516106a051614419565b61064b610548610340516105a05161032051614419565b61065f61034051610160516102e051614419565b3561067c610677610340516103c05161044051614419565b61443d565b610693610548610340516101a05161048051614419565b916106a7610340516102205160e051614419565b35936106bd610340516105205161018051614419565b359561014051986106d76103405161028051608051614419565b35986104a0519161024051916106805191614801565b6106f96103405161440a565b6103405261051b565b6103405160c051610620516001600160a01b03926107239261054892614419565b604051636eb1769f60e11b81523360048201523060248201529160209183916044918391165afa9081156107fd5761046051916107c6575b50610770610340516103e05161030051614419565b35906107c261078b6105486103405160c05161062051614419565b60405163059d9d6d60e31b8152600481019390935260248301939093526001600160a01b0390921660448201529081906064820190565b0390fd5b90506020813d6020116107f5575b816107e160209383612e36565b810103126107f057518161075b565b600080fd5b3d91506107d4565b6040513d61046051823e3d90fd5b90506020813d602011610835575b8161082660209383612e36565b810103126107f0575181610585565b3d9150610819565b3461026f5761046051806003193601126108695760ce546040516001600160a01b039091168152602090f35b80fd5b3461026f57604036600319011261026f57610885612b8d565b61088d612ba3565b906108aa60ff610460515460081c166108a581613183565b613183565b60c980546001600160a01b039283166001600160a01b0319918216811790925560405163573ea57560e01b8152909391906020908181600481865afa80156107fd5785916104605191610a6c575b50928291602494168760cb54161760cb556040519384809263cd3d4fb960e01b8252600260048301525afa80156107fd5784926104605191610a33575b508190600460405180958193632e8743fd60e21b8352165afa80156107fd57849261046051916109f9575b5060409060248251809581936337b6269f60e21b8352306004840152165afa9081156107fd57849261046051926109af575b5050168360ca54161760ca55169060cc54161760cc556104605180f35b915091506040813d6040116109f1575b816109cc60409383612e36565b8101031261026f576109e984926109e283614ece565b920161347d565b508580610992565b3d91506109bf565b809350828092503d8311610a2c575b610a128183612e36565b8101031261026f576040610a268593614ece565b90610960565b503d610a08565b809350828092503d8311610a65575b610a4c8183612e36565b8101031261026f5780610a5f8593614ece565b90610935565b503d610a42565b809250838092503d8311610a9f575b610a858183612e36565b8101031261026f5751848116810361026f578490826108f8565b503d610a7b565b3461026f5761016036600319011261026f57610ac0612b8d565b610ac8612c3e565b90610ad1612bb9565b9060a4359163ffffffff831683036107f057610aeb612c28565b9361014435946001600160401b03861161026f57610b10610214963690600401612ea9565b946101243594610104359460e435946084359260243590613e50565b3461026f57606036600319011261026f57610b45612b8d565b610b4d612ba3565b60cf546001600160a01b0392839260443592610b6d908490861684613562565b8360405192610b7b84612dae565b1682526020948593818585019316835260408401906101f4825260608501903082526080860142815260a087019182528460c08801936000855260e089019560008752828060cf5416996040519d8e9c8d63414bf38960e01b9052511660048d0152511660248b01525162ffffff1660448a0152511660648801525160848701525160a48601525160c4850152511660e4830152815a61010492600091f1908115610c5e57600091610c31575b50604051908152f35b90508181813d8311610c57575b610c488183612e36565b810103126107f0575182610c28565b503d610c3e565b6040513d6000823e3d90fd5b3461026f57604036600319011261026f57610c83612b8d565b610c8b612ba3565b90610c9f60ff610460515460081c16613183565b60c980546001600160a01b039283166001600160a01b0319918216811790925560405163573ea57560e01b8152909360209290918381600481855afa9182156107fd578585926104605194610e51575b50602493168760cb54161760cb556040519283809263cd3d4fb960e01b8252600260048301525afa9081156107fd57849184916104605191610e1a575b50600460405180948193632e8743fd60e21b8352165afa9081156107fd5784906104605192610ddd575b50604080516337b6269f60e21b815293821660048501529183916024918391165afa9182156107fd576104605192610d9c575b5050169060ca54161760ca556104605180f35b9091506040823d604011610dd5575b81610db860409383612e36565b8101031261026f57610dcd906109e283614ece565b508380610d89565b3d9150610dab565b809250848092503d8311610e13575b610df68183612e36565b8101031261026f57836024610e0c604093614ece565b9250610d56565b503d610dec565b92505081813d8311610e4a575b610e318183612e36565b8101031261026f5782610e448592614ece565b87610d2c565b503d610e27565b92809294508391503d8311610e88575b610e6b8183612e36565b8101031261026f5751848116810361026f57908390856024610cef565b503d610e61565b3461026f5761012036600319011261026f57610ea9612b8d565b610eb1612ba3565b90610eba612c3e565b6064359263ffffffff841684036107f057610ed3612bcf565b93610edc612bfb565b6001600160a01b0386169590939060009073b4fbf271143f4fbf7b91a5ded31805e42b2208d519880161117e575b50866110c0575b61010435811061109d57604080516001600160a01b038881166020838101919091528782169383019390935287166060808301919091528152610fe392610f5782612dca565b60ce546001600160a01b031690610f72906101043590613206565b9460006040518096819582946393f18ac560e01b845263ffffffff8c16600485015260018060a01b0316998a602485015273b4fbf271143f4fbf7b91a5ded31805e42b2208d66044850152336064850152608484015260e43560a484015261010060c4840152610104830190612d15565b6101043560e483015203925af18015610c5e5761106e575b50604080516001600160a01b039586168152602081019290925260c4359082015242606082015261010435608082015263ffffffff9190911660a082015290821692909116907f5add7a884c3fcd9dacaee558d72ece5037a4682a29b4e07a9ead795c5f26e0549060c090a46104605180f35b602090819492943d8311611096575b6110878183612e36565b810103126107f0579186610ffb565b503d61107d565b60405163c4225e5760e01b815260c4356004820152610104356024820152604490fd5b60ce54604051636eb1769f60e11b81523060048201526001600160a01b039091166024820181905260208260448173b4fbf271143f4fbf7b91a5ded31805e42b2208d65afa918215610c5e5760009261114b575b50610104359161112483856131e3565b11611131575b5050610f11565b61113e61114492846131e3565b9061348a565b878061112a565b9091506020813d8211611176575b8161116660209383612e36565b810103126107f057519089611114565b3d9150611159565b61118c915060c43590613812565b87610f0a565b3461026f576101e036600319011261026f576111ac612b8d565b6111b4612ba3565b906111bd612bcf565b916111c6612bfb565b906111cf612c54565b6111d7612c11565b906101a4356001600160a01b03811690036107f0576101c4356001600160401b03811161026f5761120c903690600401612c67565b604051636eb1769f60e11b81526001600160a01b03881660048201523060248201529590602087806044810103816001600160a01b038d165afa9687156107fd5761046051976113f6575b5060443580971061134157976112ba9861127388308b8561444e565b60c43593468514808061132b575b156112fd57506112a29161129b916101a4358b878761367a565b8784614513565b61016435976101443597610124359760643592614dae565b80610460515260d060205260406104605120600160028201916112dd835461440a565b8093550154146112ee576104605180f35b6112f79061393c565b80610214565b915050156000146113205761131b61018435888484888a8c8f613213565b6112a2565b61131b878783614513565b506001600160a01b038481169086161415611281565b604051636eb1769f60e11b81526001600160a01b038916600482015230602482015287908a602082806044810103816001600160a01b0385165afa9182156107fd5761046051926113c0575b5060405163059d9d6d60e31b8152600481019290925260248201929092526001600160a01b039091166044820152606490fd5b9091506020813d6020116113ee575b816113dc60209383612e36565b810103126107f05751906107c261138d565b3d91506113cf565b9096506020813d602011611422575b8161141260209383612e36565b810103126107f057519589611257565b3d9150611405565b3461026f57610460518060031936011261086957602047604051908152f35b3461026f5761046051806003193601126108695760cf546040516001600160a01b039091168152602090f35b3461026f57606036600319011261026f576001600160a01b036004358181169081900361026f576024359180831680930361026f576044359181831680930361026f5761046051549360ff8560081c1615948580966117f4575b80156117dd575b15611781576104605160ff198216600117815560ff9187611770575b505460081c169161150283613183565b61150b83613183565b6001600160601b0360a01b90858260c954161760c9556040519563573ea57560e01b87526020968781600481855afa9182156107fd578789926104605194611732575b50602493168560cb54161760cb556040519283809263cd3d4fb960e01b8252600260048301525afa9081156107fd578691889161046051916116fb575b50600460405180948193632e8743fd60e21b8352165afa80156107fd57869161046051916116c1575b5060409060248251809981936337b6269f60e21b8352306004840152165afa80156107fd576104605190611680575b61161c9650168260ca54161760ca55338260cc54161760cc558160ce54161760ce5560cf54161760cf5561271060cd556108a581613183565b61162533612f1f565b61046051549161163a60ff8460081c16613183565b611645576104605180f35b7f7f26b83ff96e1f2b6a682f133852f6798a09c465da95921460cefb38474024989161ff001916610460515560405160018152a18080610214565b506040863d6040116116b9575b8161169a60409383612e36565b8101031261026f57856116b3886109e261161c99614ece565b506115e3565b3d915061168d565b809250888092503d83116116f4575b6116da8183612e36565b8101031261026f5760406116ee8792614ece565b906115b4565b503d6116d0565b92505081813d831161172b575b6117128183612e36565b8101031261026f57866117258792614ece565b8a61158b565b503d611708565b92809294508391503d8311611769575b61174c8183612e36565b8101031261026f5751868116810361026f5790879087602461154e565b503d611742565b61ffff1916610101178155876114f2565b60405162461bcd60e51b815260206004820152602e60248201527f496e697469616c697a61626c653a20636f6e747261637420697320616c72656160448201526d191e481a5b9a5d1a585b1a5e995960921b6064820152608490fd5b50303b1580156114d65750600160ff8216146114d6565b50600160ff8216106114cf565b3461026f57610460518060031936011261086957602060405173b4fbf271143f4fbf7b91a5ded31805e42b2208d68152f35b3461026f57602036600319011261026f57600435610460515260d060205260806040610460512060018060a01b03815416906001810154906003600282015491015491604051938452602084015260408301526060820152f35b604036600319011261026f576118a1612b8d565b6024356001600160401b03811161026f576020916118c66102d2923690600401612c67565b916135ad565b3461026f576104605180600319360112610869576033546040516001600160a01b039091168152602090f35b3461026f576101c036600319011261026f57611912612b8d565b61191a612bb9565b611922612bcf565b61192a612bfb565b90611933612c28565b926101043563ffffffff811681036107f05761012435906001600160a01b03821682036107f0576101a435966001600160401b03881161026f5761197e610214983690600401612ea9565b9661018435966101643596610144359660e435946044359060243590614801565b3461026f57610460518060031936011261086957602060cd54604051908152f35b3461026f5760208060031936011261026f576024816001600160a01b036119e5612b8d565b16604051928380926370a0823160e01b82523060048301525afa9081156107fd576104605191610c315750604051908152f35b3461026f57602036600319011261026f57611a31612b8d565b611a39612ec7565b60018060a01b03166001600160601b0360a01b60d254161760d2556104605180f35b3461026f57602036600319011261026f5761021460043561393c565b3461026f5760206102d2611a8a36612c94565b99989098979197969296959395614e41565b3461026f57610460518060031936011261086957611ab8612ec7565b603380546001600160a01b031981169091556000906001600160a01b03167f8be0079c531659141344cd1fd0a4f28419497f9722a3daafe3b4186f6b6457e08280a36104605180f35b3461026f57604036600319011261026f57611b1a612b8d565b611b22612ba3565b9060018060a01b03809116610460515260d16020526040610460512091166000526020526020604060002054604051908152f35b3461026f5761046051806003193601126108695760d2546040516001600160a01b039091168152602090f35b3461026f576104605180600319360112610869576020604051737506c12a824d73d9b08564d5afc22c949434755e8152f35b3461026f576104605180600319360112610869577f00000000000000000000000000000000000000000000000000000000000000006001600160a01b03163003611c10576020604051600080516020614f778339815191528152f35b60405162461bcd60e51b815260206004820152603860248201527f555550535570677261646561626c653a206d757374206e6f742062652063616c60448201527f6c6564207468726f7567682064656c656761746563616c6c00000000000000006064820152608490fd5b3461026f576101c036600319011261026f57611c95612b8d565b611c9d612ba3565b611ca5612bcf565b611cad612bfb565b90611cb6612c28565b92611cbf612be5565b946101243563ffffffff811681036107f05761014435916001600160a01b03831683036107f057611d2397611d0f976101a4359761018435976101643597610104359560643591604435916145cd565b604051918291602083526020830190612d15565b0390f35b604036600319011261026f57611d3b612b8d565b6024356001600160401b03811161026f573660238201121561026f57611d6b903690602481600401359101612e72565b906001600160a01b037f0000000000000000000000000000000000000000000000000000000000000000811690611da430831415612f68565b611dc1600080516020614f77833981519152928284541614612fc9565b611dc9612ec7565b7f4910fdfa16fed3260ed0e7147f7cc6da11a60208b5b9406d12a635614ffd91435460ff1615611dff575050610214915061302a565b6040516352d1902d60e01b81526020939291831691908481600481865afa60009181611f9c575b50611e875760405162461bcd60e51b815260048101869052602e60248201527f45524331393637557067726164653a206e657720696d706c656d656e7461746960448201526d6f6e206973206e6f74205555505360901b6064820152608490fd5b03611f4557611e958261302a565b7fbc7cd75a20ee27fd9adebab32041f755214dbc6bffa90cc0225b39da2e5c2d3b600080a2825115801590611f3d575b611ed2575b505050610214565b600080611f349460405194611ee686612e1b565b602786527f416464726573733a206c6f772d6c6576656c2064656c65676174652063616c6c81870152660819985a5b195960ca1b604087015281519101845af4611f2e6130ba565b916130ea565b50808080611eca565b506001611ec5565b60405162461bcd60e51b815260048101849052602960248201527f45524331393637557067726164653a20756e737570706f727465642070726f786044820152681a58589b195555525160ba1b6064820152608490fd5b9091508581813d8311611fc4575b611fb48183612e36565b810103126107f057519087611e26565b503d611faa565b3461026f5761046051806003193601126108695760cc546040516001600160a01b039091168152602090f35b3461026f5761018036600319011261026f5760206102d2612016612b8d565b61201e612ba3565b612026612bcf565b9061202f612bfb565b92612038612c54565b612040612c11565b9161016435956101443595610124359560c435936064359160443591614dae565b3461026f5761016036600319011261026f576004356001600160401b03811161026f57612092903690600401612d55565b6102a052610720526024356001600160401b03811161026f576120b9903690600401612d55565b610420526102c0526044356001600160401b03811161026f576120e0903690600401612d55565b6101c052610640526064356001600160401b03811161026f57612107903690600401612d55565b610360526104c0526084356001600160401b03811161026f5761212e903690600401612d55565b610100526103805260a4356001600160401b03811161026f57612155903690600401612d55565b6106e0526107005260c4356001600160401b03811161026f5761217c903690600401612d55565b6103a0526105605260e4356001600160401b03811161026f576121a3903690600401612d55565b6102605261058052610104356001600160401b03811161026f576121cb903690600401612d55565b6101205260a052610124356001600160401b03811161026f576121f2903690600401612d55565b6106605261050052610144356001600160401b03811161026f5761221a903690600401612ea9565b6104005261046051610600525b6102a0516106005190811015610214576101c051610640516001600160a01b03926122559261054892614419565b604051636eb1769f60e11b81523360048201523060248201529160209183916044918391165afa9081156107fd576104605191612467575b506122a261060051610420516102c051614419565b35116123aa576123956122c2610548610600516102a05161072051614419565b6122d661060051610420516102c051614419565b35906122ef610548610600516101c05161064051614419565b61230661054861060051610360516104c051614419565b61231a610600516101005161038051614419565b35612332610677610600516106e05161070051614419565b612349610548610600516103a05161056051614419565b9161235e610600516102605161058051614419565b3593612373610600516101205160a051614419565b3595610400519861238e610600516106605161050051614419565b3598613e50565b6123a16106005161440a565b61060052612227565b610600516101c051610640516001600160a01b03926123cc9261054892614419565b604051636eb1769f60e11b81523360048201523060248201529160209183916044918391165afa9081156107fd576104605191612435575b5061241961060051610420516102c051614419565b35906107c261078b610548610600516101c05161064051614419565b90506020813d60201161245f575b8161245060209383612e36565b810103126107f0575181612404565b3d9150612443565b90506020813d602011612491575b8161248260209383612e36565b810103126107f057518161228d565b3d9150612475565b61046051806003193601126108695760c95460408051635c08631b60e11b8152916001600160a01b0391908390600490829085165afa9081156107fd5761046051928392612552575b5060d2541691823b1561026f5760405163c1461d5760e01b8152610460513360048301526001600160a01b039390931660248201526044810191909152918290606490829034905af180156107fd5761253c576104605180f35b61254590612d85565b6104605180156102145780fd5b925090506040823d60401161258c575b8161256f60409383612e36565b8101031261026f57612585602083519301614ece565b90836124e2565b3d9150612562565b3461026f5760208060031936011261026f576125ae612b8d565b6001600160a01b03917f000000000000000000000000000000000000000000000000000000000000000083166125e630821415612f68565b612603600080516020614f77833981519152918583541614612fc9565b61260b612ec7565b6040519361261885612e00565b6104605185527f4910fdfa16fed3260ed0e7147f7cc6da11a60208b5b9406d12a635614ffd91435460ff161561265557505050610214915061302a565b83929316906040516352d1902d60e01b81528481600481865afa6000918161272a575b506126d95760405162461bcd60e51b815260048101869052602e60248201527f45524331393637557067726164653a206e657720696d706c656d656e7461746960448201526d6f6e206973206e6f74205555505360901b6064820152608490fd5b03611f45576126e78261302a565b7fbc7cd75a20ee27fd9adebab32041f755214dbc6bffa90cc0225b39da2e5c2d3b600080a282511580159061272257611ed257505050610214565b506000611ec5565b9091508581813d8311612752575b6127428183612e36565b810103126107f057519087612678565b503d612738565b3461026f5761046051806003193601126108695760ca546040516001600160a01b039091168152602090f35b3461026f57611d23611d0f61279936612c94565b99989098979197969296959395613a3f565b3461026f576101c036600319011261026f576127c5612b8d565b6127cd612ba3565b6127d5612bb9565b916127de612bcf565b9063ffffffff60c4351660c4350361026f576127f8612be5565b91610184356001600160a01b038116900361026f576101a4356001600160401b03811161026f5761282d903690600401612c67565b9590945a604051636eb1769f60e11b81526001600160a01b038616600482015230602482015290959091602083806044810103816001600160a01b0388165afa9283156107fd576104605193612b35575b50604435809310612a81576128958330888761444e565b60a4359783468a148080612a6b575b15612a335750506128e7969798996128c2916101843586898961367a565b986128ce8a8388614513565b61014435956101243595610104359560c435948b614e41565b9182610460515260d060205261292260406104605120916002830192600161290f855461440a565b91828655015414612a25575b5a90613206565b3a8102908082043a1490151715612a0b57601981029080820460191481151715612a0b5760646129539204906131e3565b60d2546001600160a01b031694853b1561026f5760405193631bc64ab360e21b855273eeeeeeeeeeeeeeeeeeeeeeeeeeeeeeeeeeeeeeee600486015282602486015260018060a01b031695866044860152846064816104605180945af19283156107fd577f0a75ac261583d233f582aa096ae742edd6c1bde7b993c8909f33e8e9c92ee431946060946129fc575b50549160405192835260208301526040820152a36104605180f35b612a0590612d85565b876129e1565b634e487b7160e01b61046051526011600452602461046051fd5b612a2e8561393c565b61291b565b909a506128e7979899915015600014612a6057612a5b6101643585888860c43588888f613213565b6128ce565b612a5b848387614513565b506001600160a01b0387811690891614156128a4565b604051636eb1769f60e11b81526001600160a01b0387166004820152306024820152839085602082806044810103816001600160a01b0385165afa9182156107fd576104605192612aff575060405163059d9d6d60e31b8152600481019290925260248201929092526001600160a01b039091166044820152606490fd5b9091506020813d602011612b2d575b81612b1b60209383612e36565b8101031261026f5751906107c261138d565b3d9150612b0e565b9092506020813d602011612b61575b81612b5160209383612e36565b8101031261026f5751918961287e565b3d9150612b44565b346107f05760003660031901126107f05760c9546001600160a01b03168152602090f35b600435906001600160a01b03821682036107f057565b602435906001600160a01b03821682036107f057565b606435906001600160a01b03821682036107f057565b608435906001600160a01b03821682036107f057565b60e435906001600160a01b03821682036107f057565b60a435906001600160a01b03821682036107f057565b61010435906001600160a01b03821682036107f057565b60c435906001600160a01b03821682036107f057565b604435906001600160a01b03821682036107f057565b60e4359063ffffffff821682036107f057565b9181601f840112156107f0578235916001600160401b0383116107f057602083818601950101116107f057565b6101609060031901126107f0576001600160a01b039060043582811681036107f0579160243581811681036107f057916044359160643581811681036107f0579160843582811681036107f0579160a4359160c43563ffffffff811681036107f0579160e43590811681036107f05790610104359061012435906101443590565b919082519283825260005b848110612d41575050826000602080949584010152601f8019910116010190565b602081830181015184830182015201612d20565b9181601f840112156107f0578235916001600160401b0383116107f0576020808501948460051b0101116107f057565b6001600160401b038111612d9857604052565b634e487b7160e01b600052604160045260246000fd5b61010081019081106001600160401b03821117612d9857604052565b608081019081106001600160401b03821117612d9857604052565b604081019081106001600160401b03821117612d9857604052565b602081019081106001600160401b03821117612d9857604052565b606081019081106001600160401b03821117612d9857604052565b90601f801991011681019081106001600160401b03821117612d9857604052565b6001600160401b038111612d9857601f01601f191660200190565b929192612e7e82612e57565b91612e8c6040519384612e36565b8294818452818301116107f0578281602093846000960137010152565b9080601f830112156107f057816020612ec493359101612e72565b90565b6033546001600160a01b03163303612edb57565b606460405162461bcd60e51b815260206004820152602060248201527f4f776e61626c653a2063616c6c6572206973206e6f7420746865206f776e65726044820152fd5b603380546001600160a01b039283166001600160a01b0319821681179092559091167f8be0079c531659141344cd1fd0a4f28419497f9722a3daafe3b4186f6b6457e0600080a3565b15612f6f57565b60405162461bcd60e51b815260206004820152602c60248201527f46756e6374696f6e206d7573742062652063616c6c6564207468726f7567682060448201526b19195b1959d85d1958d85b1b60a21b6064820152608490fd5b15612fd057565b60405162461bcd60e51b815260206004820152602c60248201527f46756e6374696f6e206d7573742062652063616c6c6564207468726f7567682060448201526b6163746976652070726f787960a01b6064820152608490fd5b803b1561305f57600080516020614f7783398151915280546001600160a01b0319166001600160a01b03909216919091179055565b60405162461bcd60e51b815260206004820152602d60248201527f455243313936373a206e657720696d706c656d656e746174696f6e206973206e60448201526c1bdd08184818dbdb9d1c9858dd609a1b6064820152608490fd5b3d156130e5573d906130cb82612e57565b916130d96040519384612e36565b82523d6000602084013e565b606090565b9192901561314c57508151156130fe575090565b3b156131075790565b60405162461bcd60e51b815260206004820152601d60248201527f416464726573733a2063616c6c20746f206e6f6e2d636f6e74726163740000006044820152606490fd5b82519091501561315f5750805190602001fd5b60405162461bcd60e51b8152602060048201529081906107c2906024830190612d15565b1561318a57565b60405162461bcd60e51b815260206004820152602b60248201527f496e697469616c697a61626c653a20636f6e7472616374206973206e6f74206960448201526a6e697469616c697a696e6760a81b6064820152608490fd5b919082018092116131f057565b634e487b7160e01b600052601160045260246000fd5b919082039182116131f057565b6001600160a01b0385811698969773b4fbf271143f4fbf7b91a5ded31805e42b2208d6966000969194919391929073b4fbf271143f4fbf7b91a5ded31805e42b2208d5198c01613469575b508a6133cc575b8887106133ae5790889493929160409381855193169a82808d94602097889687890152169e8f89880152169a8b6060870152606086526132a486612dca565b8160ce5416926132b391613206565b928751958694859384936393f18ac560e01b855263ffffffff169d8e6004860152169e8f60248501526044840152336064840152608483015260a4820161012c905260c482016101009052610104820161330c91612d15565b8a60e483015203915a90600091f180156133a35761336e575b50907f5add7a884c3fcd9dacaee558d72ece5037a4682a29b4e07a9ead795c5f26e0549660c096959493928251968752860152840152426060840152608083015260a0820152a4565b9080969594939291813d831161339c575b6133898183612e36565b810103126107f057909192939438613325565b503d61337f565b83513d6000823e3d90fd5b6044858a6040519163c4225e5760e01b835260048301526024820152fd5b60ce54604051636eb1769f60e11b81523060048201529082166001600160a01b0381166024830152906020816044818d5afa908115610c5e57600091613438575b506134188b8a6131e3565b11613424575b50613265565b6134329061113e8b8a6131e3565b3861341e565b906020823d8211613461575b8161345160209383612e36565b810103126108695750513861340d565b3d9150613444565b6134769197508590613812565b953861325e565b519081151582036107f057565b60405163095ea7b360e01b602082019081526001600160a01b03909216602482015260448101929092526000918291906134d181606481015b03601f198101835282612e36565b51908273b4fbf271143f4fbf7b91a5ded31805e42b2208d65af16134f36130ba565b8161352b575b501561350157565b60405162461bcd60e51b8152602060048201526002602482015261534160f01b6044820152606490fd5b8051801592508215613540575b5050386134f9565b81925090602091810103126107f057602061355b910161347d565b3880613538565b60405163095ea7b360e01b602082019081526001600160a01b039093166024820152604481019390935260009283929083906135a181606481016134c3565b51925af16134f36130ba565b91906135ba913691612e72565b90604051906135c882612de5565b601882527f216469726563745377617070657243616c6c4661696c656400000000000000006020830152344710613626576000808460206136129651910134855af1611f2e6130ba565b6020818051810103126107f0576020015190565b60405162461bcd60e51b815260206004820152602660248201527f416464726573733a20696e73756666696369656e742062616c616e636520666f6044820152651c8818d85b1b60d21b6064820152608490fd5b6001600160a01b0380821697969594939192811688146138095783169081156137ce57604051636eb1769f60e11b81523060048201526001600160a01b03851660248201526020988990829060449082905afa908115610c5e576000916137a1575b50106136f0575b5050612ec49394506135ad565b6000918291826040518a81019263095ea7b360e01b84526024820152811960448201526044815261372081612dca565b51925af161372c6130ba565b81613769575b501561373f5784806136e3565b60405162461bcd60e51b8152600481018690526002602482015261534160f01b6044820152606490fd5b80915051868115918215613782575b5050905038613732565b83809293500103126107f05785613799910161347d565b808638613778565b908982813d83116137c7575b6137b78183612e36565b81010312610869575051386136dc565b503d6137ad565b60405162461bcd60e51b8152602060048201526013602482015272537761703a207a65726f20737761707065722160681b6044820152606490fd5b50955050505050565b60cf546001600160a01b039283929091613830908390851683613562565b826040519161383e83612dae565b1681526020810173b4fbf271143f4fbf7b91a5ded31805e42b2208d6815283604083016101f481526060840194308652608085019042825260a0860190815260c08601916000998a9889855260e08901958a8752828060cf5416996040519d8e9c8d63414bf38960e01b9052511660048d0152511660248b01525162ffffff1660448a0152511660648801525160848701525160a48601525160c4850152511660e4830152815a9361010492602095f191821561393057809261390057505090565b9091506020823d8211613928575b8161391b60209383612e36565b8101031261086957505190565b3d915061390e565b604051903d90823e3d90fd5b60009080825260d0602052604090818320825161395881612dca565b60018060a01b0391606060038483541692838552600181015460208601526002810154888601520154920191825215613a0c57519060c9541690813b15613a08578491602483928651948593849263ee8ca3b560e01b845260048401525af180156139fb579160039391600095936139e8575b50825260d060205281209081558260018201558260028201550155565b6139f490939193612d85565b91386139cb565b50505051903d90823e3d90fd5b8480fd5b835162461bcd60e51b815260206004820152600c60248201526b139bc81293d088119bdd5b9960a21b6044820152606490fd5b999590979692989491613a71613a6b613a65613a65613a5f600495613bc5565b9e613d2d565b9b613d2d565b95613d2d565b60ce5460405163617d935360e11b81529260209184919082906001600160a01b03165afa918215610c5e57600092613b92575b50613aae30613d2d565b94613ab890613d2d565b956040519c8d9b60208d016101c090526101e08d01613ad691612d15565b8c601f199e8f9283838203016040840152613af091612d15565b91818303019060600152613b0391612d15565b8c8c82030160808d0152613b1691612d15565b8b8b82030160a08c0152613b2991612d15565b924660c08b015260e08a015261010089015263ffffffff166101208801528787820301610140880152613b5b91612d15565b8686820301610160870152613b6f91612d15565b926101808501526101a08401526101c0830152039081018252612ec49082612e36565b90916020823d8211613bbd575b81613bac60209383612e36565b810103126108695750519038613aa4565b3d9150613b9f565b806000917a184f03e93ff9f4daa797ed6e38ed64bf6a1f01000000000000000080821015613d1f575b506d04ee2d6d415b85acef810000000080831015613d10575b50662386f26fc1000080831015613d01575b506305f5e10080831015613cf2575b5061271080831015613ce3575b506064821015613cd3575b600a80921015613cc9575b60019081602181860195613c5e87612e57565b96613c6c6040519889612e36565b808852613c7b601f1991612e57565b01366020890137860101905b613c93575b5050505090565b600019019083906f181899199a1a9b1b9c1cb0b131b232b360811b8282061a835304918215613cc457919082613c87565b613c8c565b9160010191613c4b565b9190606460029104910191613c40565b60049193920491019138613c35565b60089193920491019138613c28565b60109193920491019138613c19565b60209193920491019138613c07565b604093508104915038613bee565b604051906001600160a01b0316613d4382612e1b565b602a82526020908183016040368237835115613e3a57603090538251600190811015613e3a57607860218501536029905b808211613dc8575050613d85575090565b6064906040519062461bcd60e51b825280600483015260248201527f537472696e67733a20686578206c656e67746820696e73756666696369656e746044820152fd5b9091600f81166010811015613e25578551841015613e25576f181899199a1a9b1b9c1cb0b131b232b360811b901a85840185015360041c918015613e10576000190190613d74565b60246000634e487b7160e01b81526011600452fd5b60246000634e487b7160e01b81526032600452fd5b634e487b7160e01b600052603260045260246000fd5b6107c091909152604051636eb1769f60e11b8152336004820152306024820152929991989097909690959094909390929091906020816044816001600160a01b038e165afa908115610c5e57600091614374575b506107c051116142ce578787878787878f8f9089916107c0513399613ec89a613a3f565b60405191613ed583612e00565b60008084526040516307e47b2560e01b60208201523360248201526001600160a01b038c811660448301526107c05160648301528d811660848301528e811660a483015260c4820187905263ffffffff881660e48301528816610104820152610124810189905261014481018a905261016481018b905261018481018290526101a48101919091526101c06101c4820152928390613f78906101e4830190612d15565b03601f1981018452613f8a9084612e36565b60405191613f9783612dca565b600383526060366020850137613fab6143a6565b9260405193613fb985612de5565b8185526020850152613fca906143dd565b600190528251613fd9906143ea565b600290528251613fe8906143fa565b60049052613ff68a8a614f05565b602084015190614005826143dd565b5261400f906143dd565b5060405161401c81612e00565b6000815260208401519061402f826143ea565b52614039906143ea565b5061404391614f35565b602082015190614052826143fa565b5261405c906143fa565b50600160a01b6001900360c9541691604051806107a052633323b46760e01b9052306107a051600401526107a051602401608090526107a0516084016140a191612d15565b906107a051600319818403019060440152604082019080519160408452825180915260608401926020019060005b8181106142af5750505060200151916020818303910152815180825260208201916020808360051b8301019401926000915b8383106142825750505050506020916000918260646107a05101526107a0519283809203925af1988915610c5e57600099614248575b908161415888888888888f8f99899163ffffffff9c9b6107c0519033614e41565b9960405161416581612dca565b33815260038d8d602084018b81526040850191600083526060860193845260005260d060205260406000209460018060a01b039051166001600160601b0360a01b865416178555516001850155516002840155519101556040519b8c526107c05160208d015260018060a01b031660408c015260018060a01b031660608b015260808a01521660a088015260018060a01b031660c087015260e0860152610100850152610120840152600061014084015260018060a01b0316917f65a03e0830b01d78daf919e861a7af45abacd89f015dec2962f6ec272c69c1be6101603392a4565b986020903d60201161427a575b614262826107a051612e36565b60206107a05180938101031261086957505198614137565b3d9150614255565b90919293946020806142a0600193601f198682030187528951612d15565b97019301930191939290614101565b909193602080826142c36001948951614ee2565b0195019291016140cf565b604051636eb1769f60e11b815233600482015230602482015289906020816044816001600160a01b0386165afa908115610c5e57600091614342575b5060405163059d9d6d60e31b81526107c051600482019290925260248101919091526001600160a01b03919091166044820152606490fd5b906020823d60201161436c575b8161435c60209383612e36565b810103126108695750518261430a565b3d915061434f565b906020823d60201161439e575b8161438e60209383612e36565b8101031261086957505138613ea4565b3d9150614381565b604051906143b382612dca565b60038252819060005b6060808210156143d65790602091828287010152016143bc565b5050909150565b805115613e3a5760200190565b805160011015613e3a5760400190565b805160021015613e3a5760600190565b60001981146131f05760010190565b9190811015613e3a5760051b0190565b356001600160a01b03811681036107f05790565b3563ffffffff811681036107f05790565b6040516323b872dd60e01b602082019081526001600160a01b039384166024830152939092166044830152606482019390935260009283929091839061449781608481016134c3565b51925af16144a36130ba565b816144dc575b50156144b157565b60405162461bcd60e51b815260206004820152600360248201526229aa2360e91b6044820152606490fd5b80518015925082156144f1575b5050386144a9565b81925090602091810103126107f057602061450c910161347d565b38806144e9565b60405163a9059cbb60e01b602082019081526001600160a01b0390931660248201526044810193909352600092839290839061455281606481016134c3565b51925af161455e6130ba565b81614596575b501561456c57565b60405162461bcd60e51b815260206004820152600260248201526114d560f21b6044820152606490fd5b80518015925082156145ab575b505038614564565b81925090602091810103126107f05760206145c6910161347d565b38806145a3565b9099989693949192614612613a6b9c9e9d9c613a6b613a6b61460c6146066146006145fa60049e9b613bc5565b97613bc5565b97613d2d565b9f613d2d565b99613d2d565b60ce5460405163617d935360e11b8152989197916020918a919082906001600160a01b03165afa978815610c5e576000986147ce575b5061465230613d2d565b9a61465c90613d2d565b9b604051806107c05260200161022090526107c0516102400161467e91612d15565b6107c051601f1981830301906040015261469791612d15565b6107c051601f198183030190606001526146b091612d15565b6107c051601f198183030190608001526146c991612d15565b6107c051601f19818303019060a001526146e291612d15565b6107c051601f19818303019060c001526146fb91612d15565b6107c051601f19818303019060e0015261471491612d15565b6107c051601f198183030190610100015261472e91612d15565b92466107c05161012001526107c05161014001526107c051610160015263ffffffff166107c05161018001526107c051601f1981830301906101a0015261477491612d15565b6107c051601f1981830301906101c0015261478e91612d15565b926107c0516101e001526107c05161020001526107c05161022001526107c05180910390601f19820190526107c051906147c791612e36565b6107c05190565b90976020823d82116147f9575b816147e860209383612e36565b810103126108695750519638614648565b3d91506147db565b6107a05261078052604051636eb1769f60e11b8152336004820152306024820152919b909a99989796959492939092916020818e81806044810103916001600160a01b03165afa908115610c5e57600091614d7c575b506107805111614cd657888888888f8f968f968a8c93610780519a6107a0519b339c6148829d6145cd565b906040519161489083612e00565b600080845260405163c728b83d60e01b60208201523360248201526107a0516001600160a01b039081166044830152610780516064830152608482018e90528e811660a483015286811660c483015260e4820188905263ffffffff8916610104830152891661012482015261014481018a905261016481018b905261018481018c90526101a481018290526101c48101919091526101e06101e482015292839061493f90610204830190612d15565b03601f19810184526149519084612e36565b60405161495d81612dca565b6003815260603660208301376149716143a6565b604051806107605261498290612de5565b8161076051526107605160200152614999906143dd565b6001905261076051516149ab906143ea565b6002905261076051516149bd906143fa565b600490526149cb8a8a614f05565b6107605160200151906149dd826143dd565b526149e7906143dd565b506040516149f481612e00565b60008152610760516020015190614a0a826143ea565b52614a14906143ea565b50614a1e91614f35565b610760516020015190614a30826143fa565b52614a3a906143fa565b50600160a01b6001900360c95416906040516107406107e052806107e05152633323b46760e01b9052306107e05151600401526107e05151602401608090526107e05151608401614a8a91612d15565b6107e051516003198183030190604401526040810161076051519060408352815180915260608301916020019060005b818110614cb7575050506020610760510151916020818303910152815180825260208201916020808360051b8301019401926000915b838310614c8a5750505050506020916000918260646107e0515101526107e051519283809203925af1988915610c5e57600099614c46575b9081614b4c89898989898f9988819a63ffffffff9d9c610780516107a05133614dae565b99604051614b5981612dca565b33815260038d8d602084018c81526040850191600083526060860193845260005260d060205260406000209460018060a01b039051166001600160601b0360a01b865416178555516001850155516002840155519101556040519b8c526107805160208d015260408c015260018060a01b031660608b015260018060a01b031660808a015260a08901521660c087015260018060a01b031660e0860152610100850152610120840152610140830152600161016083015260018060a01b036107a05116917f32f4f6a7671e85f9cbbc8150e33f27f39c69f205f8e9deda5a3127f49f6b0ff26101803392a4565b929190986020903d602011614c82575b614c64826107e05151612e36565b60206107e05151809381010312610869575051989192909190614b28565b3d9150614c56565b9091929394602080614ca8600193601f198682030187528951612d15565b97019301930191939290614af0565b90919260208082614ccb6001948851614ee2565b019401929101614aba565b604051636eb1769f60e11b81523360048201523060248201528c906020816044816001600160a01b0386165afa908115610c5e57600091614d4a575b5060405163059d9d6d60e31b815261078051600482019290925260248101919091526001600160a01b03919091166044820152606490fd5b906020823d602011614d74575b81614d6460209383612e36565b8101031261086957505182614d12565b3d9150614d57565b906020823d602011614da6575b81614d9660209383612e36565b8101031261086957505138614857565b3d9150614d89565b9a9896939997949095929a6040519a60208c019c8d948d600160a01b60019003809b81988280981690521660408201526060015260808d01521660a08b01521660c089015260e088015263ffffffff1661010087015216610120850152610140840152610160830152610180908183015281526101a081018181106001600160401b03821117612d985760405251902090565b9163ffffffff9399979460609b9997939692966040519b8c93602085019e8f9560018060a01b03809c819882809816905216604082015201521660808c01521660a08a015260c08901521660e0870152166101008501526101208401526101408301526101609081830152815261018081018181106001600160401b03821117612d985760405251902090565b51906001600160a01b03821682036107f057565b906005821015614eef5752565b634e487b7160e01b600052602160045260246000fd5b604051916fffffffffffffffffffffffffffffffff809216602084015216604082015260408152612ec481612e1b565b614f5791612ec491614f6a604051948592604060208501526060840190612d15565b601f199384848303016040850152612d15565b03908101835282612e3656fe360894a13ba1a3210667c828492db98dca3e2076cc3735a920a3ca505d382bbca26469706673582212208867bf8cf00fa55e0f3fae675ea2032273236b132aef86ae7d3bbae7f0fab1b964736f6c63430008110033",
  "linkReferences": {},
  "deployedLinkReferences": {}
}